{
  "_format": "hh3-artifact-1",
  "contractName": "WTYSettlement1155",
  "sourceName": "contracts/Watty.sol",
  "abi": [
    {
      "inputs": [],
      "stateMutability": "nonpayable",
      "type": "constructor"
    },
    {
      "inputs": [
        {
          "internalType": "address",
          "name": "sender",
          "type": "address"
        },
        {
          "internalType": "uint256",
          "name": "balance",
          "type": "uint256"
        },
        {
          "internalType": "uint256",
          "name": "needed",
          "type": "uint256"
        },
        {
          "internalType": "uint256",
          "name": "tokenId",
          "type": "uint256"
        }
      ],
      "name": "ERC1155InsufficientBalance",
      "type": "error"
    },
    {
      "inputs": [
        {
          "internalType": "address",
          "name": "approver",
          "type": "address"
        }
      ],
      "name": "ERC1155InvalidApprover",
      "type": "error"
    },
    {
      "inputs": [
        {
          "internalType": "uint256",
          "name": "idsLength",
          "type": "uint256"
        },
        {
          "internalType": "uint256",
          "name": "valuesLength",
          "type": "uint256"
        }
      ],
      "name": "ERC1155InvalidArrayLength",
      "type": "error"
    },
    {
      "inputs": [
        {
          "internalType": "address",
          "name": "operator",
          "type": "address"
        }
      ],
      "name": "ERC1155InvalidOperator",
      "type": "error"
    },
    {
      "inputs": [
        {
          "internalType": "address",
          "name": "receiver",
          "type": "address"
        }
      ],
      "name": "ERC1155InvalidReceiver",
      "type": "error"
    },
    {
      "inputs": [
        {
          "internalType": "address",
          "name": "sender",
          "type": "address"
        }
      ],
      "name": "ERC1155InvalidSender",
      "type": "error"
    },
    {
      "inputs": [
        {
          "internalType": "address",
          "name": "operator",
          "type": "address"
        },
        {
          "internalType": "address",
          "name": "owner",
          "type": "address"
        }
      ],
      "name": "ERC1155MissingApprovalForAll",
      "type": "error"
    },
    {
      "inputs": [],
      "name": "MeterAlreadyRegistered",
      "type": "error"
    },
    {
      "inputs": [],
      "name": "MeterNotRegistered",
      "type": "error"
    },
    {
      "inputs": [],
      "name": "NotAdmin",
      "type": "error"
    },
    {
      "inputs": [],
      "name": "NotAllowed",
      "type": "error"
    },
    {
      "inputs": [],
      "name": "NotMinter",
      "type": "error"
    },
    {
      "inputs": [],
      "name": "ZeroAddress",
      "type": "error"
    },
    {
      "inputs": [],
      "name": "ZeroValue",
      "type": "error"
    },
    {
      "anonymous": false,
      "inputs": [
        {
          "indexed": true,
          "internalType": "address",
          "name": "account",
          "type": "address"
        },
        {
          "indexed": true,
          "internalType": "address",
          "name": "operator",
          "type": "address"
        },
        {
          "indexed": false,
          "internalType": "bool",
          "name": "approved",
          "type": "bool"
        }
      ],
      "name": "ApprovalForAll",
      "type": "event"
    },
    {
      "anonymous": false,
      "inputs": [
        {
          "indexed": false,
          "internalType": "address",
          "name": "from",
          "type": "address"
        },
        {
          "indexed": false,
          "internalType": "uint256",
          "name": "amount",
          "type": "uint256"
        },
        {
          "indexed": false,
          "internalType": "bytes32",
          "name": "ref",
          "type": "bytes32"
        }
      ],
      "name": "CreditsBurned",
      "type": "event"
    },
    {
      "anonymous": false,
      "inputs": [
        {
          "indexed": false,
          "internalType": "bytes32",
          "name": "meterId",
          "type": "bytes32"
        },
        {
          "indexed": false,
          "internalType": "address",
          "name": "to",
          "type": "address"
        },
        {
          "indexed": false,
          "internalType": "uint256",
          "name": "amount",
          "type": "uint256"
        },
        {
          "indexed": false,
          "internalType": "bytes32",
          "name": "ref",
          "type": "bytes32"
        }
      ],
      "name": "CreditsMinted",
      "type": "event"
    },
    {
      "anonymous": false,
      "inputs": [
        {
          "indexed": false,
          "internalType": "bytes32",
          "name": "meterId",
          "type": "bytes32"
        },
        {
          "indexed": false,
          "internalType": "bytes32",
          "name": "intervalId",
          "type": "bytes32"
        },
        {
          "indexed": false,
          "internalType": "uint256",
          "name": "whDelta",
          "type": "uint256"
        },
        {
          "indexed": false,
          "internalType": "bytes32",
          "name": "dataHash",
          "type": "bytes32"
        }
      ],
      "name": "EnergyReported",
      "type": "event"
    },
    {
      "anonymous": false,
      "inputs": [
        {
          "indexed": false,
          "internalType": "bytes32",
          "name": "meterId",
          "type": "bytes32"
        },
        {
          "indexed": false,
          "internalType": "address",
          "name": "owner",
          "type": "address"
        },
        {
          "indexed": false,
          "internalType": "bytes32",
          "name": "metadataHash",
          "type": "bytes32"
        }
      ],
      "name": "MeterRegistered",
      "type": "event"
    },
    {
      "anonymous": false,
      "inputs": [
        {
          "indexed": false,
          "internalType": "bytes32",
          "name": "siteId",
          "type": "bytes32"
        },
        {
          "indexed": false,
          "internalType": "bytes32",
          "name": "period",
          "type": "bytes32"
        },
        {
          "indexed": false,
          "internalType": "uint256",
          "name": "totalWh",
          "type": "uint256"
        },
        {
          "indexed": false,
          "internalType": "uint256",
          "name": "totalTokens",
          "type": "uint256"
        },
        {
          "indexed": false,
          "internalType": "bytes32",
          "name": "proofHash",
          "type": "bytes32"
        }
      ],
      "name": "SettlementFinalized",
      "type": "event"
    },
    {
      "anonymous": false,
      "inputs": [
        {
          "indexed": true,
          "internalType": "address",
          "name": "operator",
          "type": "address"
        },
        {
          "indexed": true,
          "internalType": "address",
          "name": "from",
          "type": "address"
        },
        {
          "indexed": true,
          "internalType": "address",
          "name": "to",
          "type": "address"
        },
        {
          "indexed": false,
          "internalType": "uint256[]",
          "name": "ids",
          "type": "uint256[]"
        },
        {
          "indexed": false,
          "internalType": "uint256[]",
          "name": "values",
          "type": "uint256[]"
        }
      ],
      "name": "TransferBatch",
      "type": "event"
    },
    {
      "anonymous": false,
      "inputs": [
        {
          "indexed": true,
          "internalType": "address",
          "name": "operator",
          "type": "address"
        },
        {
          "indexed": true,
          "internalType": "address",
          "name": "from",
          "type": "address"
        },
        {
          "indexed": true,
          "internalType": "address",
          "name": "to",
          "type": "address"
        },
        {
          "indexed": false,
          "internalType": "uint256",
          "name": "id",
          "type": "uint256"
        },
        {
          "indexed": false,
          "internalType": "uint256",
          "name": "value",
          "type": "uint256"
        }
      ],
      "name": "TransferSingle",
      "type": "event"
    },
    {
      "anonymous": false,
      "inputs": [
        {
          "indexed": false,
          "internalType": "string",
          "name": "value",
          "type": "string"
        },
        {
          "indexed": true,
          "internalType": "uint256",
          "name": "id",
          "type": "uint256"
        }
      ],
      "name": "URI",
      "type": "event"
    },
    {
      "inputs": [],
      "name": "admin",
      "outputs": [
        {
          "internalType": "address",
          "name": "",
          "type": "address"
        }
      ],
      "stateMutability": "view",
      "type": "function"
    },
    {
      "inputs": [
        {
          "internalType": "address",
          "name": "account",
          "type": "address"
        },
        {
          "internalType": "uint256",
          "name": "id",
          "type": "uint256"
        }
      ],
      "name": "balanceOf",
      "outputs": [
        {
          "internalType": "uint256",
          "name": "",
          "type": "uint256"
        }
      ],
      "stateMutability": "view",
      "type": "function"
    },
    {
      "inputs": [
        {
          "internalType": "address[]",
          "name": "accounts",
          "type": "address[]"
        },
        {
          "internalType": "uint256[]",
          "name": "ids",
          "type": "uint256[]"
        }
      ],
      "name": "balanceOfBatch",
      "outputs": [
        {
          "internalType": "uint256[]",
          "name": "",
          "type": "uint256[]"
        }
      ],
      "stateMutability": "view",
      "type": "function"
    },
    {
      "inputs": [
        {
          "internalType": "address",
          "name": "from",
          "type": "address"
        },
        {
          "internalType": "uint256",
          "name": "tokenId",
          "type": "uint256"
        },
        {
          "internalType": "uint256",
          "name": "amount",
          "type": "uint256"
        },
        {
          "internalType": "bytes32",
          "name": "ref",
          "type": "bytes32"
        }
      ],
      "name": "burnCredits",
      "outputs": [],
      "stateMutability": "nonpayable",
      "type": "function"
    },
    {
      "inputs": [
        {
          "internalType": "bytes32",
          "name": "siteId",
          "type": "bytes32"
        },
        {
          "internalType": "bytes32",
          "name": "period",
          "type": "bytes32"
        },
        {
          "internalType": "uint256",
          "name": "totalWh",
          "type": "uint256"
        },
        {
          "internalType": "uint256",
          "name": "totalTokens",
          "type": "uint256"
        },
        {
          "internalType": "bytes32",
          "name": "proofHash",
          "type": "bytes32"
        }
      ],
      "name": "finalizeSettlement",
      "outputs": [],
      "stateMutability": "nonpayable",
      "type": "function"
    },
    {
      "inputs": [
        {
          "internalType": "address",
          "name": "account",
          "type": "address"
        },
        {
          "internalType": "address",
          "name": "operator",
          "type": "address"
        }
      ],
      "name": "isApprovedForAll",
      "outputs": [
        {
          "internalType": "bool",
          "name": "",
          "type": "bool"
        }
      ],
      "stateMutability": "view",
      "type": "function"
    },
    {
      "inputs": [
        {
          "internalType": "address",
          "name": "",
          "type": "address"
        }
      ],
      "name": "isMinter",
      "outputs": [
        {
          "internalType": "bool",
          "name": "",
          "type": "bool"
        }
      ],
      "stateMutability": "view",
      "type": "function"
    },
    {
      "inputs": [
        {
          "internalType": "bytes32",
          "name": "",
          "type": "bytes32"
        }
      ],
      "name": "meters",
      "outputs": [
        {
          "internalType": "address",
          "name": "owner",
          "type": "address"
        },
        {
          "internalType": "bytes32",
          "name": "metadataHash",
          "type": "bytes32"
        }
      ],
      "stateMutability": "view",
      "type": "function"
    },
    {
      "inputs": [
        {
          "internalType": "bytes32",
          "name": "meterId",
          "type": "bytes32"
        },
        {
          "internalType": "address",
          "name": "to",
          "type": "address"
        },
        {
          "internalType": "uint256",
          "name": "tokenId",
          "type": "uint256"
        },
        {
          "internalType": "uint256",
          "name": "amount",
          "type": "uint256"
        },
        {
          "internalType": "bytes32",
          "name": "ref",
          "type": "bytes32"
        }
      ],
      "name": "mintCredits",
      "outputs": [],
      "stateMutability": "nonpayable",
      "type": "function"
    },
    {
      "inputs": [
        {
          "internalType": "bytes32",
          "name": "meterId",
          "type": "bytes32"
        },
        {
          "internalType": "address",
          "name": "owner",
          "type": "address"
        },
        {
          "internalType": "bytes32",
          "name": "metadataHash",
          "type": "bytes32"
        }
      ],
      "name": "registerMeter",
      "outputs": [],
      "stateMutability": "nonpayable",
      "type": "function"
    },
    {
      "inputs": [
        {
          "internalType": "bytes32",
          "name": "meterId",
          "type": "bytes32"
        },
        {
          "internalType": "bytes32",
          "name": "intervalId",
          "type": "bytes32"
        },
        {
          "internalType": "uint256",
          "name": "whDelta",
          "type": "uint256"
        },
        {
          "internalType": "bytes32",
          "name": "dataHash",
          "type": "bytes32"
        }
      ],
      "name": "reportEnergy",
      "outputs": [],
      "stateMutability": "nonpayable",
      "type": "function"
    },
    {
      "inputs": [
        {
          "internalType": "address",
          "name": "from",
          "type": "address"
        },
        {
          "internalType": "address",
          "name": "to",
          "type": "address"
        },
        {
          "internalType": "uint256[]",
          "name": "ids",
          "type": "uint256[]"
        },
        {
          "internalType": "uint256[]",
          "name": "values",
          "type": "uint256[]"
        },
        {
          "internalType": "bytes",
          "name": "data",
          "type": "bytes"
        }
      ],
      "name": "safeBatchTransferFrom",
      "outputs": [],
      "stateMutability": "nonpayable",
      "type": "function"
    },
    {
      "inputs": [
        {
          "internalType": "address",
          "name": "from",
          "type": "address"
        },
        {
          "internalType": "address",
          "name": "to",
          "type": "address"
        },
        {
          "internalType": "uint256",
          "name": "id",
          "type": "uint256"
        },
        {
          "internalType": "uint256",
          "name": "value",
          "type": "uint256"
        },
        {
          "internalType": "bytes",
          "name": "data",
          "type": "bytes"
        }
      ],
      "name": "safeTransferFrom",
      "outputs": [],
      "stateMutability": "nonpayable",
      "type": "function"
    },
    {
      "inputs": [
        {
          "internalType": "address",
          "name": "operator",
          "type": "address"
        },
        {
          "internalType": "bool",
          "name": "approved",
          "type": "bool"
        }
      ],
      "name": "setApprovalForAll",
      "outputs": [],
      "stateMutability": "nonpayable",
      "type": "function"
    },
    {
      "inputs": [
        {
          "internalType": "address",
          "name": "account",
          "type": "address"
        },
        {
          "internalType": "bool",
          "name": "value",
          "type": "bool"
        }
      ],
      "name": "setMinter",
      "outputs": [],
      "stateMutability": "nonpayable",
      "type": "function"
    },
    {
      "inputs": [
        {
          "internalType": "bytes4",
          "name": "interfaceId",
          "type": "bytes4"
        }
      ],
      "name": "supportsInterface",
      "outputs": [
        {
          "internalType": "bool",
          "name": "",
          "type": "bool"
        }
      ],
      "stateMutability": "view",
      "type": "function"
    },
    {
      "inputs": [
        {
          "internalType": "uint256",
          "name": "",
          "type": "uint256"
        }
      ],
      "name": "uri",
      "outputs": [
        {
          "internalType": "string",
          "name": "",
          "type": "string"
        }
      ],
      "stateMutability": "view",
      "type": "function"
    }
  ],
  "bytecode": "0x608060405234801561000f575f5ffd5b5060405180602001604052805f81525061002e8161007460201b60201c565b503360035f6101000a81548173ffffffffffffffffffffffffffffffffffffffff021916908373ffffffffffffffffffffffffffffffffffffffff160217905550610393565b806002908161008391906102c4565b5050565b5f81519050919050565b7f4e487b71000000000000000000000000000000000000000000000000000000005f52604160045260245ffd5b7f4e487b71000000000000000000000000000000000000000000000000000000005f52602260045260245ffd5b5f600282049050600182168061010257607f821691505b602082108103610115576101146100be565b5b50919050565b5f819050815f5260205f209050919050565b5f6020601f8301049050919050565b5f82821b905092915050565b5f600883026101777fffffffffffffffffffffffffffffffffffffffffffffffffffffffffffffffff8261013c565b610181868361013c565b95508019841693508086168417925050509392505050565b5f819050919050565b5f819050919050565b5f6101c56101c06101bb84610199565b6101a2565b610199565b9050919050565b5f819050919050565b6101de836101ab565b6101f26101ea826101cc565b848454610148565b825550505050565b5f5f905090565b6102096101fa565b6102148184846101d5565b505050565b5b818110156102375761022c5f82610201565b60018101905061021a565b5050565b601f82111561027c5761024d8161011b565b6102568461012d565b81016020851015610265578190505b6102796102718561012d565b830182610219565b50505b505050565b5f82821c905092915050565b5f61029c5f1984600802610281565b1980831691505092915050565b5f6102b4838361028d565b9150826002028217905092915050565b6102cd82610087565b67ffffffffffffffff8111156102e6576102e5610091565b5b6102f082546100eb565b6102fb82828561023b565b5f60209050601f83116001811461032c575f841561031a578287015190505b61032485826102a9565b86555061038b565b601f19841661033a8661011b565b5f5b828110156103615784890151825560018201915060208501945060208101905061033c565b8683101561037e578489015161037a601f89168261028d565b8355505b6001600288020188555050505b505050505050565b613036806103a05f395ff3fe608060405234801561000f575f5ffd5b5060043610610108575f3560e01c806386400d0b116100a0578063e86584321161006f578063e8658432146102d5578063e985e9c5146102f1578063f242432a14610321578063f851a4401461033d578063fe2010bb1461035b57610108565b806386400d0b14610251578063a22cb4651461026d578063aa271e1a14610289578063cf456ae7146102b957610108565b80631889f088116100dc5780631889f088146101cd5780632eb2c2d6146101e95780634e1273f4146102055780638037169a1461023557610108565b8062fdd58e1461010c57806301ffc9a71461013c5780630e89341c1461016c5780631850861f1461019c575b5f5ffd5b610126600480360381019061012191906120fe565b610377565b604051610133919061214b565b60405180910390f35b610156600480360381019061015191906121b9565b6103cc565b60405161016391906121fe565b60405180910390f35b61018660048036038101906101819190612217565b6104ad565b60405161019391906122b2565b60405180910390f35b6101b660048036038101906101b19190612305565b61053f565b6040516101c492919061234e565b60405180910390f35b6101e760048036038101906101e29190612375565b61057e565b005b61020360048036038101906101fe91906125dc565b61079e565b005b61021f600480360381019061021a9190612767565b6107c3565b60405161022c9190612894565b60405180910390f35b61024f600480360381019061024a91906128b4565b6108cd565b005b61026b60048036038101906102669190612904565b610b92565b005b61028760048036038101906102829190612992565b610d43565b005b6102a3600480360381019061029e91906129d0565b610d59565b6040516102b091906121fe565b60405180910390f35b6102d360048036038101906102ce9190612992565b610d76565b005b6102ef60048036038101906102ea91906129fb565b610e54565b005b61030b60048036038101906103069190612a72565b610fb2565b60405161031891906121fe565b60405180910390f35b61033b60048036038101906103369190612ab0565b611040565b005b610345611065565b6040516103529190612b43565b60405180910390f35b61037560048036038101906103709190612b5c565b61108a565b005b5f5f5f8381526020019081526020015f205f8473ffffffffffffffffffffffffffffffffffffffff1673ffffffffffffffffffffffffffffffffffffffff1681526020019081526020015f2054905092915050565b5f7fd9b67a26000000000000000000000000000000000000000000000000000000007bffffffffffffffffffffffffffffffffffffffffffffffffffffffff1916827bffffffffffffffffffffffffffffffffffffffffffffffffffffffff1916148061049657507f0e89341c000000000000000000000000000000000000000000000000000000007bffffffffffffffffffffffffffffffffffffffffffffffffffffffff1916827bffffffffffffffffffffffffffffffffffffffffffffffffffffffff1916145b806104a657506104a582611265565b5b9050919050565b6060600280546104bc90612bed565b80601f01602080910402602001604051908101604052809291908181526020018280546104e890612bed565b80156105335780601f1061050a57610100808354040283529160200191610533565b820191905f5260205f20905b81548152906001019060200180831161051657829003601f168201915b50505050509050919050565b6005602052805f5260405f205f91509050805f015f9054906101000a900473ffffffffffffffffffffffffffffffffffffffff16908060010154905082565b60045f3373ffffffffffffffffffffffffffffffffffffffff1673ffffffffffffffffffffffffffffffffffffffff1681526020019081526020015f205f9054906101000a900460ff166105fe576040517ff8d2906c00000000000000000000000000000000000000000000000000000000815260040160405180910390fd5b5f73ffffffffffffffffffffffffffffffffffffffff1660055f8781526020019081526020015f205f015f9054906101000a900473ffffffffffffffffffffffffffffffffffffffff1673ffffffffffffffffffffffffffffffffffffffff1603610695576040517f3d15f09100000000000000000000000000000000000000000000000000000000815260040160405180910390fd5b5f73ffffffffffffffffffffffffffffffffffffffff168473ffffffffffffffffffffffffffffffffffffffff16036106fa576040517fd92e233d00000000000000000000000000000000000000000000000000000000815260040160405180910390fd5b5f82148061070957505f5f1b81145b15610740576040517f7c946ed700000000000000000000000000000000000000000000000000000000815260040160405180910390fd5b61075a84848460405180602001604052805f8152506112ce565b7ffa22407257b5e3193bc482375c4e8fac91d136a89c83123ad1871c6d4b0d2fc98585848460405161078f9493929190612c1d565b60405180910390a15050505050565b6107af6107a9611364565b8661136b565b6107bc85858585856113f6565b5050505050565b6060815183511461080f57815183516040517f5b059991000000000000000000000000000000000000000000000000000000008152600401610806929190612c60565b60405180910390fd5b5f835167ffffffffffffffff81111561082b5761082a6123f0565b5b6040519080825280602002602001820160405280156108595781602001602082028036833780820191505090505b5090505f5f90505b84518110156108c25761089861088082876114ec90919063ffffffff16565b61089383876114ff90919063ffffffff16565b610377565b8282815181106108ab576108aa612c87565b5b602002602001018181525050806001019050610861565b508091505092915050565b60035f9054906101000a900473ffffffffffffffffffffffffffffffffffffffff1673ffffffffffffffffffffffffffffffffffffffff163373ffffffffffffffffffffffffffffffffffffffff1614610953576040517f7bfa4b9f00000000000000000000000000000000000000000000000000000000815260040160405180910390fd5b5f5f1b830361098e576040517f7c946ed700000000000000000000000000000000000000000000000000000000815260040160405180910390fd5b5f73ffffffffffffffffffffffffffffffffffffffff168273ffffffffffffffffffffffffffffffffffffffff16036109f3576040517fd92e233d00000000000000000000000000000000000000000000000000000000815260040160405180910390fd5b5f5f1b8103610a2e576040517f7c946ed700000000000000000000000000000000000000000000000000000000815260040160405180910390fd5b5f73ffffffffffffffffffffffffffffffffffffffff1660055f8581526020019081526020015f205f015f9054906101000a900473ffffffffffffffffffffffffffffffffffffffff1673ffffffffffffffffffffffffffffffffffffffff1614610ac5576040517f7ab825a400000000000000000000000000000000000000000000000000000000815260040160405180910390fd5b60405180604001604052808373ffffffffffffffffffffffffffffffffffffffff1681526020018281525060055f8581526020019081526020015f205f820151815f015f6101000a81548173ffffffffffffffffffffffffffffffffffffffff021916908373ffffffffffffffffffffffffffffffffffffffff160217905550602082015181600101559050507f99b7b4f40a0dbdd7ef025695033b494ba44d34dadb8fd8fd34a3666c220c87fd838383604051610b8593929190612cb4565b60405180910390a1505050565b5f73ffffffffffffffffffffffffffffffffffffffff168473ffffffffffffffffffffffffffffffffffffffff1603610bf7576040517fd92e233d00000000000000000000000000000000000000000000000000000000815260040160405180910390fd5b5f821480610c0657505f5f1b81145b15610c3d576040517f7c946ed700000000000000000000000000000000000000000000000000000000815260040160405180910390fd5b8373ffffffffffffffffffffffffffffffffffffffff163373ffffffffffffffffffffffffffffffffffffffff1614158015610cc0575060045f3373ffffffffffffffffffffffffffffffffffffffff1673ffffffffffffffffffffffffffffffffffffffff1681526020019081526020015f205f9054906101000a900460ff16155b15610cf7576040517f3d693ada00000000000000000000000000000000000000000000000000000000815260040160405180910390fd5b610d02848484611512565b7f74424a4d777d763750357dbf730328fecfd5483163df09477fd6ded6dcf2bb00848383604051610d3593929190612ce9565b60405180910390a150505050565b610d55610d4e611364565b83836115b5565b5050565b6004602052805f5260405f205f915054906101000a900460ff1681565b60035f9054906101000a900473ffffffffffffffffffffffffffffffffffffffff1673ffffffffffffffffffffffffffffffffffffffff163373ffffffffffffffffffffffffffffffffffffffff1614610dfc576040517f7bfa4b9f00000000000000000000000000000000000000000000000000000000815260040160405180910390fd5b8060045f8473ffffffffffffffffffffffffffffffffffffffff1673ffffffffffffffffffffffffffffffffffffffff1681526020019081526020015f205f6101000a81548160ff0219169083151502179055505050565b60045f3373ffffffffffffffffffffffffffffffffffffffff1673ffffffffffffffffffffffffffffffffffffffff1681526020019081526020015f205f9054906101000a900460ff16610ed4576040517ff8d2906c00000000000000000000000000000000000000000000000000000000815260040160405180910390fd5b5f5f1b851480610ee557505f5f1b84145b80610ef157505f5f1b81145b15610f28576040517f7c946ed700000000000000000000000000000000000000000000000000000000815260040160405180910390fd5b5f831480610f3557505f82145b15610f6c576040517f7c946ed700000000000000000000000000000000000000000000000000000000815260040160405180910390fd5b7fe02ea11f5e343aabee635dd803525ad2dc63d494dcccc545d5dabb93f13e8fff8585858585604051610fa3959493929190612d1e565b60405180910390a15050505050565b5f60015f8473ffffffffffffffffffffffffffffffffffffffff1673ffffffffffffffffffffffffffffffffffffffff1681526020019081526020015f205f8373ffffffffffffffffffffffffffffffffffffffff1673ffffffffffffffffffffffffffffffffffffffff1681526020019081526020015f205f9054906101000a900460ff16905092915050565b61105161104b611364565b8661136b565b61105e858585858561178e565b5050505050565b60035f9054906101000a900473ffffffffffffffffffffffffffffffffffffffff1681565b60045f3373ffffffffffffffffffffffffffffffffffffffff1673ffffffffffffffffffffffffffffffffffffffff1681526020019081526020015f205f9054906101000a900460ff1661110a576040517ff8d2906c00000000000000000000000000000000000000000000000000000000815260040160405180910390fd5b5f73ffffffffffffffffffffffffffffffffffffffff1660055f8681526020019081526020015f205f015f9054906101000a900473ffffffffffffffffffffffffffffffffffffffff1673ffffffffffffffffffffffffffffffffffffffff16036111a1576040517f3d15f09100000000000000000000000000000000000000000000000000000000815260040160405180910390fd5b5f5f1b8314806111b257505f5f1b81145b156111e9576040517f7c946ed700000000000000000000000000000000000000000000000000000000815260040160405180910390fd5b5f8203611222576040517f7c946ed700000000000000000000000000000000000000000000000000000000815260040160405180910390fd5b7fef985165af6080f38c50601fab3002e325bb87c7f7ef7323a5ea7544bfe93dfd848484846040516112579493929190612d6f565b60405180910390a150505050565b5f7f01ffc9a7000000000000000000000000000000000000000000000000000000007bffffffffffffffffffffffffffffffffffffffffffffffffffffffff1916827bffffffffffffffffffffffffffffffffffffffffffffffffffffffff1916149050919050565b5f73ffffffffffffffffffffffffffffffffffffffff168473ffffffffffffffffffffffffffffffffffffffff160361133e575f6040517f57f447ce0000000000000000000000000000000000000000000000000000000081526004016113359190612b43565b60405180910390fd5b5f5f61134a8585611895565b9150915061135c5f878484875f6118c5565b505050505050565b5f33905090565b8173ffffffffffffffffffffffffffffffffffffffff168173ffffffffffffffffffffffffffffffffffffffff16141580156113ae57506113ac8183610fb2565b155b156113f25781816040517fe237d9220000000000000000000000000000000000000000000000000000000081526004016113e9929190612db2565b60405180910390fd5b5050565b5f73ffffffffffffffffffffffffffffffffffffffff168473ffffffffffffffffffffffffffffffffffffffff1603611466575f6040517f57f447ce00000000000000000000000000000000000000000000000000000000815260040161145d9190612b43565b60405180910390fd5b5f73ffffffffffffffffffffffffffffffffffffffff168573ffffffffffffffffffffffffffffffffffffffff16036114d6575f6040517f01a835140000000000000000000000000000000000000000000000000000000081526004016114cd9190612b43565b60405180910390fd5b6114e5858585858560016118c5565b5050505050565b5f60208202602084010151905092915050565b5f60208202602084010151905092915050565b5f73ffffffffffffffffffffffffffffffffffffffff168373ffffffffffffffffffffffffffffffffffffffff1603611582575f6040517f01a835140000000000000000000000000000000000000000000000000000000081526004016115799190612b43565b60405180910390fd5b5f5f61158e8484611895565b915091506115ae855f848460405180602001604052805f8152505f6118c5565b5050505050565b5f73ffffffffffffffffffffffffffffffffffffffff168373ffffffffffffffffffffffffffffffffffffffff1603611625575f6040517f3e31884e00000000000000000000000000000000000000000000000000000000815260040161161c9190612b43565b60405180910390fd5b5f73ffffffffffffffffffffffffffffffffffffffff168273ffffffffffffffffffffffffffffffffffffffff1603611695575f6040517fced3e10000000000000000000000000000000000000000000000000000000000815260040161168c9190612b43565b60405180910390fd5b8060015f8573ffffffffffffffffffffffffffffffffffffffff1673ffffffffffffffffffffffffffffffffffffffff1681526020019081526020015f205f8473ffffffffffffffffffffffffffffffffffffffff1673ffffffffffffffffffffffffffffffffffffffff1681526020019081526020015f205f6101000a81548160ff0219169083151502179055508173ffffffffffffffffffffffffffffffffffffffff168373ffffffffffffffffffffffffffffffffffffffff167f17307eab39ab6107e8899845ad3d59bd9653f200f220920489ca2b5937696c318360405161178191906121fe565b60405180910390a3505050565b5f73ffffffffffffffffffffffffffffffffffffffff168473ffffffffffffffffffffffffffffffffffffffff16036117fe575f6040517f57f447ce0000000000000000000000000000000000000000000000000000000081526004016117f59190612b43565b60405180910390fd5b5f73ffffffffffffffffffffffffffffffffffffffff168573ffffffffffffffffffffffffffffffffffffffff160361186e575f6040517f01a835140000000000000000000000000000000000000000000000000000000081526004016118659190612b43565b60405180910390fd5b5f5f61187a8585611895565b9150915061188c87878484875f6118c5565b50505050505050565b60608060405191506001825283602083015260408201905060018152826020820152604081016040529250929050565b6118d18686868661196f565b5f73ffffffffffffffffffffffffffffffffffffffff168573ffffffffffffffffffffffffffffffffffffffff1614611967575f61190d611364565b9050811561192857611923818888888888611d02565b611965565b5f61193c5f876114ff90919063ffffffff16565b90505f6119525f876114ff90919063ffffffff16565b9050611962838a8a85858a611eb1565b50505b505b505050505050565b80518251146119b957815181516040517f5b0599910000000000000000000000000000000000000000000000000000000081526004016119b0929190612c60565b60405180910390fd5b5f6119c2611364565b90505f5f90505b8351811015611bc1575f6119e682866114ff90919063ffffffff16565b90505f6119fc83866114ff90919063ffffffff16565b90505f73ffffffffffffffffffffffffffffffffffffffff168873ffffffffffffffffffffffffffffffffffffffff1614611b1f575f5f5f8481526020019081526020015f205f8a73ffffffffffffffffffffffffffffffffffffffff1673ffffffffffffffffffffffffffffffffffffffff1681526020019081526020015f2054905081811015611acb57888183856040517f03dee4c5000000000000000000000000000000000000000000000000000000008152600401611ac29493929190612dd9565b60405180910390fd5b8181035f5f8581526020019081526020015f205f8b73ffffffffffffffffffffffffffffffffffffffff1673ffffffffffffffffffffffffffffffffffffffff1681526020019081526020015f2081905550505b5f73ffffffffffffffffffffffffffffffffffffffff168773ffffffffffffffffffffffffffffffffffffffff1614611bb457805f5f8481526020019081526020015f205f8973ffffffffffffffffffffffffffffffffffffffff1673ffffffffffffffffffffffffffffffffffffffff1681526020019081526020015f205f828254611bac9190612e49565b925050819055505b50508060010190506119c9565b506001835103611c7c575f611bdf5f856114ff90919063ffffffff16565b90505f611bf55f856114ff90919063ffffffff16565b90508573ffffffffffffffffffffffffffffffffffffffff168773ffffffffffffffffffffffffffffffffffffffff168473ffffffffffffffffffffffffffffffffffffffff167fc3d58168c5ae7397731d063d5bbf3d657854427343f4c083240f7aacaa2d0f628585604051611c6d929190612c60565b60405180910390a45050611cfb565b8373ffffffffffffffffffffffffffffffffffffffff168573ffffffffffffffffffffffffffffffffffffffff168273ffffffffffffffffffffffffffffffffffffffff167f4a39dc06d4c0dbc64b70af90fd698a233a518aa5d07e595d983b8c0526c8f7fb8686604051611cf2929190612e7c565b60405180910390a45b5050505050565b5f8473ffffffffffffffffffffffffffffffffffffffff163b1115611ea9578373ffffffffffffffffffffffffffffffffffffffff1663bc197c8187878686866040518663ffffffff1660e01b8152600401611d62959493929190612f03565b6020604051808303815f875af1925050508015611d9d57506040513d601f19601f82011682018060405250810190611d9a9190612f7d565b60015b611e1e573d805f8114611dcb576040519150601f19603f3d011682016040523d82523d5f602084013e611dd0565b606091505b505f815103611e1657846040517f57f447ce000000000000000000000000000000000000000000000000000000008152600401611e0d9190612b43565b60405180910390fd5b805160208201fd5b63bc197c8160e01b7bffffffffffffffffffffffffffffffffffffffffffffffffffffffff1916817bffffffffffffffffffffffffffffffffffffffffffffffffffffffff191614611ea757846040517f57f447ce000000000000000000000000000000000000000000000000000000008152600401611e9e9190612b43565b60405180910390fd5b505b505050505050565b5f8473ffffffffffffffffffffffffffffffffffffffff163b1115612058578373ffffffffffffffffffffffffffffffffffffffff1663f23a6e6187878686866040518663ffffffff1660e01b8152600401611f11959493929190612fa8565b6020604051808303815f875af1925050508015611f4c57506040513d601f19601f82011682018060405250810190611f499190612f7d565b60015b611fcd573d805f8114611f7a576040519150601f19603f3d011682016040523d82523d5f602084013e611f7f565b606091505b505f815103611fc557846040517f57f447ce000000000000000000000000000000000000000000000000000000008152600401611fbc9190612b43565b60405180910390fd5b805160208201fd5b63f23a6e6160e01b7bffffffffffffffffffffffffffffffffffffffffffffffffffffffff1916817bffffffffffffffffffffffffffffffffffffffffffffffffffffffff19161461205657846040517f57f447ce00000000000000000000000000000000000000000000000000000000815260040161204d9190612b43565b60405180910390fd5b505b505050505050565b5f604051905090565b5f5ffd5b5f5ffd5b5f73ffffffffffffffffffffffffffffffffffffffff82169050919050565b5f61209a82612071565b9050919050565b6120aa81612090565b81146120b4575f5ffd5b50565b5f813590506120c5816120a1565b92915050565b5f819050919050565b6120dd816120cb565b81146120e7575f5ffd5b50565b5f813590506120f8816120d4565b92915050565b5f5f6040838503121561211457612113612069565b5b5f612121858286016120b7565b9250506020612132858286016120ea565b9150509250929050565b612145816120cb565b82525050565b5f60208201905061215e5f83018461213c565b92915050565b5f7fffffffff0000000000000000000000000000000000000000000000000000000082169050919050565b61219881612164565b81146121a2575f5ffd5b50565b5f813590506121b38161218f565b92915050565b5f602082840312156121ce576121cd612069565b5b5f6121db848285016121a5565b91505092915050565b5f8115159050919050565b6121f8816121e4565b82525050565b5f6020820190506122115f8301846121ef565b92915050565b5f6020828403121561222c5761222b612069565b5b5f612239848285016120ea565b91505092915050565b5f81519050919050565b5f82825260208201905092915050565b8281835e5f83830152505050565b5f601f19601f8301169050919050565b5f61228482612242565b61228e818561224c565b935061229e81856020860161225c565b6122a78161226a565b840191505092915050565b5f6020820190508181035f8301526122ca818461227a565b905092915050565b5f819050919050565b6122e4816122d2565b81146122ee575f5ffd5b50565b5f813590506122ff816122db565b92915050565b5f6020828403121561231a57612319612069565b5b5f612327848285016122f1565b91505092915050565b61233981612090565b82525050565b612348816122d2565b82525050565b5f6040820190506123615f830185612330565b61236e602083018461233f565b9392505050565b5f5f5f5f5f60a0868803121561238e5761238d612069565b5b5f61239b888289016122f1565b95505060206123ac888289016120b7565b94505060406123bd888289016120ea565b93505060606123ce888289016120ea565b92505060806123df888289016122f1565b9150509295509295909350565b5f5ffd5b7f4e487b71000000000000000000000000000000000000000000000000000000005f52604160045260245ffd5b6124268261226a565b810181811067ffffffffffffffff82111715612445576124446123f0565b5b80604052505050565b5f612457612060565b9050612463828261241d565b919050565b5f67ffffffffffffffff821115612482576124816123f0565b5b602082029050602081019050919050565b5f5ffd5b5f6124a96124a484612468565b61244e565b905080838252602082019050602084028301858111156124cc576124cb612493565b5b835b818110156124f557806124e188826120ea565b8452602084019350506020810190506124ce565b5050509392505050565b5f82601f830112612513576125126123ec565b5b8135612523848260208601612497565b91505092915050565b5f5ffd5b5f67ffffffffffffffff82111561254a576125496123f0565b5b6125538261226a565b9050602081019050919050565b828183375f83830152505050565b5f61258061257b84612530565b61244e565b90508281526020810184848401111561259c5761259b61252c565b5b6125a7848285612560565b509392505050565b5f82601f8301126125c3576125c26123ec565b5b81356125d384826020860161256e565b91505092915050565b5f5f5f5f5f60a086880312156125f5576125f4612069565b5b5f612602888289016120b7565b9550506020612613888289016120b7565b945050604086013567ffffffffffffffff8111156126345761263361206d565b5b612640888289016124ff565b935050606086013567ffffffffffffffff8111156126615761266061206d565b5b61266d888289016124ff565b925050608086013567ffffffffffffffff81111561268e5761268d61206d565b5b61269a888289016125af565b9150509295509295909350565b5f67ffffffffffffffff8211156126c1576126c06123f0565b5b602082029050602081019050919050565b5f6126e46126df846126a7565b61244e565b9050808382526020820190506020840283018581111561270757612706612493565b5b835b81811015612730578061271c88826120b7565b845260208401935050602081019050612709565b5050509392505050565b5f82601f83011261274e5761274d6123ec565b5b813561275e8482602086016126d2565b91505092915050565b5f5f6040838503121561277d5761277c612069565b5b5f83013567ffffffffffffffff81111561279a5761279961206d565b5b6127a68582860161273a565b925050602083013567ffffffffffffffff8111156127c7576127c661206d565b5b6127d3858286016124ff565b9150509250929050565b5f81519050919050565b5f82825260208201905092915050565b5f819050602082019050919050565b61280f816120cb565b82525050565b5f6128208383612806565b60208301905092915050565b5f602082019050919050565b5f612842826127dd565b61284c81856127e7565b9350612857836127f7565b805f5b8381101561288757815161286e8882612815565b97506128798361282c565b92505060018101905061285a565b5085935050505092915050565b5f6020820190508181035f8301526128ac8184612838565b905092915050565b5f5f5f606084860312156128cb576128ca612069565b5b5f6128d8868287016122f1565b93505060206128e9868287016120b7565b92505060406128fa868287016122f1565b9150509250925092565b5f5f5f5f6080858703121561291c5761291b612069565b5b5f612929878288016120b7565b945050602061293a878288016120ea565b935050604061294b878288016120ea565b925050606061295c878288016122f1565b91505092959194509250565b612971816121e4565b811461297b575f5ffd5b50565b5f8135905061298c81612968565b92915050565b5f5f604083850312156129a8576129a7612069565b5b5f6129b5858286016120b7565b92505060206129c68582860161297e565b9150509250929050565b5f602082840312156129e5576129e4612069565b5b5f6129f2848285016120b7565b91505092915050565b5f5f5f5f5f60a08688031215612a1457612a13612069565b5b5f612a21888289016122f1565b9550506020612a32888289016122f1565b9450506040612a43888289016120ea565b9350506060612a54888289016120ea565b9250506080612a65888289016122f1565b9150509295509295909350565b5f5f60408385031215612a8857612a87612069565b5b5f612a95858286016120b7565b9250506020612aa6858286016120b7565b9150509250929050565b5f5f5f5f5f60a08688031215612ac957612ac8612069565b5b5f612ad6888289016120b7565b9550506020612ae7888289016120b7565b9450506040612af8888289016120ea565b9350506060612b09888289016120ea565b925050608086013567ffffffffffffffff811115612b2a57612b2961206d565b5b612b36888289016125af565b9150509295509295909350565b5f602082019050612b565f830184612330565b92915050565b5f5f5f5f60808587031215612b7457612b73612069565b5b5f612b81878288016122f1565b9450506020612b92878288016122f1565b9350506040612ba3878288016120ea565b9250506060612bb4878288016122f1565b91505092959194509250565b7f4e487b71000000000000000000000000000000000000000000000000000000005f52602260045260245ffd5b5f6002820490506001821680612c0457607f821691505b602082108103612c1757612c16612bc0565b5b50919050565b5f608082019050612c305f83018761233f565b612c3d6020830186612330565b612c4a604083018561213c565b612c57606083018461233f565b95945050505050565b5f604082019050612c735f83018561213c565b612c80602083018461213c565b9392505050565b7f4e487b71000000000000000000000000000000000000000000000000000000005f52603260045260245ffd5b5f606082019050612cc75f83018661233f565b612cd46020830185612330565b612ce1604083018461233f565b949350505050565b5f606082019050612cfc5f830186612330565b612d09602083018561213c565b612d16604083018461233f565b949350505050565b5f60a082019050612d315f83018861233f565b612d3e602083018761233f565b612d4b604083018661213c565b612d58606083018561213c565b612d65608083018461233f565b9695505050505050565b5f608082019050612d825f83018761233f565b612d8f602083018661233f565b612d9c604083018561213c565b612da9606083018461233f565b95945050505050565b5f604082019050612dc55f830185612330565b612dd26020830184612330565b9392505050565b5f608082019050612dec5f830187612330565b612df9602083018661213c565b612e06604083018561213c565b612e13606083018461213c565b95945050505050565b7f4e487b71000000000000000000000000000000000000000000000000000000005f52601160045260245ffd5b5f612e53826120cb565b9150612e5e836120cb565b9250828201905080821115612e7657612e75612e1c565b5b92915050565b5f6040820190508181035f830152612e948185612838565b90508181036020830152612ea88184612838565b90509392505050565b5f81519050919050565b5f82825260208201905092915050565b5f612ed582612eb1565b612edf8185612ebb565b9350612eef81856020860161225c565b612ef88161226a565b840191505092915050565b5f60a082019050612f165f830188612330565b612f236020830187612330565b8181036040830152612f358186612838565b90508181036060830152612f498185612838565b90508181036080830152612f5d8184612ecb565b90509695505050505050565b5f81519050612f778161218f565b92915050565b5f60208284031215612f9257612f91612069565b5b5f612f9f84828501612f69565b91505092915050565b5f60a082019050612fbb5f830188612330565b612fc86020830187612330565b612fd5604083018661213c565b612fe2606083018561213c565b8181036080830152612ff48184612ecb565b9050969550505050505056fea26469706673582212204905a57512b7b9e17e3eb25eefff2e0348bae545e3013949673bd4f54485cdb164736f6c634300081c0033",
  "linkReferences": {},
  "deployedLinkReferences": {},
  "immutableReferences": {},
  "inputSourceName": "project/contracts/Watty.sol",
  "buildInfoId": "solc-0_8_28-c59494cb2282226753d3533b407cc49a8e2ea8b3"
}